{
    "_format": "hh-sol-artifact-1",
    "contractName": "Bittex",
    "sourceName": "contracts/bitrax.sol",
    "abi": [
        {
            "inputs": [
                {
                    "internalType": "address",
                    "name": "_inputToken",
                    "type": "address"
                },
                {
                    "internalType": "address",
                    "name": "_outputToken",
                    "type": "address"
                },
                {
                    "internalType": "uint256",
                    "name": "_inputTokenAmount",
                    "type": "uint256"
                }
            ],
            "name": "createSwap",
            "outputs": [
                {
                    "internalType": "bytes32",
                    "name": "swapId",
                    "type": "bytes32"
                }
            ],
            "stateMutability": "nonpayable",
            "type": "function"
        },
        {
            "inputs": [
                {
                    "internalType": "bytes32",
                    "name": "_swapId",
                    "type": "bytes32"
                }
            ],
            "name": "finalizeSwap",
            "outputs": [],
            "stateMutability": "nonpayable",
            "type": "function"
        },
        {
            "inputs": [
                {
                    "internalType": "bytes32",
                    "name": "_swapId",
                    "type": "bytes32"
                },
                {
                    "internalType": "address",
                    "name": "_bidder",
                    "type": "address"
                }
            ],
            "name": "getBidInfo",
            "outputs": [
                {
                    "internalType": "uint256",
                    "name": "bidAmount",
                    "type": "uint256"
                }
            ],
            "stateMutability": "view",
            "type": "function"
        },
        {
            "inputs": [
                {
                    "internalType": "bytes32",
                    "name": "_swapId",
                    "type": "bytes32"
                },
                {
                    "internalType": "uint256",
                    "name": "_amount",
                    "type": "uint256"
                }
            ],
            "name": "makeBid",
            "outputs": [],
            "stateMutability": "nonpayable",
            "type": "function"
        },
        {
            "inputs": [
                {
                    "internalType": "bytes32",
                    "name": "",
                    "type": "bytes32"
                }
            ],
            "name": "swaps",
            "outputs": [
                {
                    "internalType": "address",
                    "name": "inputToken",
                    "type": "address"
                },
                {
                    "internalType": "address",
                    "name": "outputToken",
                    "type": "address"
                },
                {
                    "internalType": "address",
                    "name": "topBidder1",
                    "type": "address"
                },
                {
                    "internalType": "address",
                    "name": "topBidder2",
                    "type": "address"
                },
                {
                    "internalType": "address",
                    "name": "topBidder3",
                    "type": "address"
                },
                {
                    "internalType": "address",
                    "name": "winner",
                    "type": "address"
                },
                {
                    "internalType": "uint256",
                    "name": "inputTokenAmount",
                    "type": "uint256"
                },
                {
                    "internalType": "uint256",
                    "name": "timestamp",
                    "type": "uint256"
                },
                {
                    "internalType": "bytes32",
                    "name": "swapId",
                    "type": "bytes32"
                }
            ],
            "stateMutability": "view",
            "type": "function"
        },
        {
            "inputs": [
                {
                    "internalType": "bytes32",
                    "name": "_swapId",
                    "type": "bytes32"
                }
            ],
            "name": "withdrawBid",
            "outputs": [],
            "stateMutability": "nonpayable",
            "type": "function"
        }
    ],
    "bytecode": "0x608060405234801561001057600080fd5b506122bb806100206000396000f3fe608060405234801561001057600080fd5b50600436106100625760003560e01c806301f575b9146100675780636c80fd5b1461008357806392364d9c146100b3578063b5e8b98d146100cf578063eb84e7f2146100ff578063f7fd24c714610137575b600080fd5b610081600480360381019061007c919061165f565b610153565b005b61009d60048036038101906100989190611720565b610653565b6040516100aa9190611782565b60405180910390f35b6100cd60048036038101906100c8919061179d565b610848565b005b6100e960048036038101906100e491906117dd565b610b2f565b6040516100f6919061182c565b60405180910390f35b6101196004803603810190610114919061165f565b610b8c565b60405161012e99989796959493929190611856565b60405180910390f35b610151600480360381019061014c919061165f565b610c9a565b005b806001600082815260200190815260200160002060009054906101000a900473ffffffffffffffffffffffffffffffffffffffff1673ffffffffffffffffffffffffffffffffffffffff163373ffffffffffffffffffffffffffffffffffffffff16146101f5576040517f08c379a00000000000000000000000000000000000000000000000000000000081526004016101ec90611966565b60405180910390fd5b600260009054906101000a900460ff1615610245576040517f08c379a000000000000000000000000000000000000000000000000000000000815260040161023c906119d2565b60405180910390fd5b6001600260006101000a81548160ff02191690831515021790555060008060008481526020019081526020016000209050600073ffffffffffffffffffffffffffffffffffffffff168160050160009054906101000a900473ffffffffffffffffffffffffffffffffffffffff1673ffffffffffffffffffffffffffffffffffffffff1614610309576040517f08c379a000000000000000000000000000000000000000000000000000000000815260040161030090611a64565b60405180910390fd5b61012c816007015461031b9190611ab3565b421161035c576040517f08c379a000000000000000000000000000000000000000000000000000000000815260040161035390611b33565b60405180910390fd5b60008160000160009054906101000a900473ffffffffffffffffffffffffffffffffffffffff16905060008260010160009054906101000a900473ffffffffffffffffffffffffffffffffffffffff16905060006103b986611045565b9050600073ffffffffffffffffffffffffffffffffffffffff168173ffffffffffffffffffffffffffffffffffffffff160361042a576040517f08c379a000000000000000000000000000000000000000000000000000000000815260040161042190611b9f565b60405180910390fd5b8273ffffffffffffffffffffffffffffffffffffffff166323b872dd338387600601546040518463ffffffff1660e01b815260040161046b93929190611bbf565b6020604051808303816000875af115801561048a573d6000803e3d6000fd5b505050506040513d601f19601f820116820180604052508101906104ae9190611c2e565b6104ed576040517f08c379a00000000000000000000000000000000000000000000000000000000081526004016104e490611ca7565b60405180910390fd5b8173ffffffffffffffffffffffffffffffffffffffff166323b872dd303387600b0160008673ffffffffffffffffffffffffffffffffffffffff1673ffffffffffffffffffffffffffffffffffffffff168152602001908152602001600020546040518463ffffffff1660e01b815260040161056b93929190611bbf565b6020604051808303816000875af115801561058a573d6000803e3d6000fd5b505050506040513d601f19601f820116820180604052508101906105ae9190611c2e565b6105ed576040517f08c379a00000000000000000000000000000000000000000000000000000000081526004016105e490611ca7565b60405180910390fd5b808460050160006101000a81548173ffffffffffffffffffffffffffffffffffffffff021916908373ffffffffffffffffffffffffffffffffffffffff160217905550505050506000600260006101000a81548160ff0219169083151502179055505050565b60008273ffffffffffffffffffffffffffffffffffffffff168473ffffffffffffffffffffffffffffffffffffffff16036106c3576040517f08c379a00000000000000000000000000000000000000000000000000000000081526004016106ba90611d39565b60405180910390fd5b60008211610706576040517f08c379a00000000000000000000000000000000000000000000000000000000081526004016106fd90611dcb565b60405180910390fd5b338484844260405160200161071f959493929190611e54565b60405160208183030381529060405280519060200120905060008060008381526020019081526020016000209050818160080181905550848160000160006101000a81548173ffffffffffffffffffffffffffffffffffffffff021916908373ffffffffffffffffffffffffffffffffffffffff160217905550838160010160006101000a81548173ffffffffffffffffffffffffffffffffffffffff021916908373ffffffffffffffffffffffffffffffffffffffff160217905550828160060181905550428160070181905550336001600084815260200190815260200160002060006101000a81548173ffffffffffffffffffffffffffffffffffffffff021916908373ffffffffffffffffffffffffffffffffffffffff160217905550509392505050565b600260009054906101000a900460ff1615610898576040517f08c379a000000000000000000000000000000000000000000000000000000000815260040161088f906119d2565b60405180910390fd5b6001600260006101000a81548160ff021916908315150217905550600081116108f6576040517f08c379a00000000000000000000000000000000000000000000000000000000081526004016108ed90611f25565b60405180910390fd5b60008060008481526020019081526020016000209050600081600b0160003373ffffffffffffffffffffffffffffffffffffffff1673ffffffffffffffffffffffffffffffffffffffff1681526020019081526020016000205414610990576040517f08c379a000000000000000000000000000000000000000000000000000000000815260040161098790611fb7565b60405180910390fd5b600080600085815260200190815260200160002060010160009054906101000a900473ffffffffffffffffffffffffffffffffffffffff169050600073ffffffffffffffffffffffffffffffffffffffff168173ffffffffffffffffffffffffffffffffffffffff1603610a39576040517f08c379a0000000000000000000000000000000000000000000000000000000008152600401610a3090612023565b60405180910390fd5b8073ffffffffffffffffffffffffffffffffffffffff166323b872dd3330866040518463ffffffff1660e01b8152600401610a7693929190611bbf565b6020604051808303816000875af1158015610a95573d6000803e3d6000fd5b505050506040513d601f19601f82011682018060405250810190610ab99190611c2e565b610af8576040517f08c379a0000000000000000000000000000000000000000000000000000000008152600401610aef90611ca7565b60405180910390fd5b610b038433856111ef565b610b0e84338561155d565b50506000600260006101000a81548160ff0219169083151502179055505050565b6000806000848152602001908152602001600020600b0160008373ffffffffffffffffffffffffffffffffffffffff1673ffffffffffffffffffffffffffffffffffffffff16815260200190815260200160002054905092915050565b60006020528060005260406000206000915090508060000160009054906101000a900473ffffffffffffffffffffffffffffffffffffffff16908060010160009054906101000a900473ffffffffffffffffffffffffffffffffffffffff16908060020160009054906101000a900473ffffffffffffffffffffffffffffffffffffffff16908060030160009054906101000a900473ffffffffffffffffffffffffffffffffffffffff16908060040160009054906101000a900473ffffffffffffffffffffffffffffffffffffffff16908060050160009054906101000a900473ffffffffffffffffffffffffffffffffffffffff16908060060154908060070154908060080154905089565b600260009054906101000a900460ff1615610cea576040517f08c379a0000000000000000000000000000000000000000000000000000000008152600401610ce1906119d2565b60405180910390fd5b6001600260006101000a81548160ff02191690831515021790555060008060008381526020019081526020016000209050600073ffffffffffffffffffffffffffffffffffffffff168160050160009054906101000a900473ffffffffffffffffffffffffffffffffffffffff1673ffffffffffffffffffffffffffffffffffffffff16141580610d8b575061012c8160070154610d889190611ab3565b42115b610dca576040517f08c379a0000000000000000000000000000000000000000000000000000000008152600401610dc1906120b5565b60405180910390fd5b600081600b0160003373ffffffffffffffffffffffffffffffffffffffff1673ffffffffffffffffffffffffffffffffffffffff16815260200190815260200160002054905060008111610e53576040517f08c379a0000000000000000000000000000000000000000000000000000000008152600401610e4a9061216d565b60405180910390fd5b81600a0160003373ffffffffffffffffffffffffffffffffffffffff1673ffffffffffffffffffffffffffffffffffffffff16815260200190815260200160002060009054906101000a900460ff1615610ee2576040517f08c379a0000000000000000000000000000000000000000000000000000000008152600401610ed9906121d9565b60405180910390fd5b60008260010160009054906101000a900473ffffffffffffffffffffffffffffffffffffffff1690508073ffffffffffffffffffffffffffffffffffffffff166323b872dd3033856040518463ffffffff1660e01b8152600401610f4893929190611bbf565b6020604051808303816000875af1158015610f67573d6000803e3d6000fd5b505050506040513d601f19601f82011682018060405250810190610f8b9190611c2e565b610fca576040517f08c379a0000000000000000000000000000000000000000000000000000000008152600401610fc190611ca7565b60405180910390fd5b600183600a0160003373ffffffffffffffffffffffffffffffffffffffff1673ffffffffffffffffffffffffffffffffffffffff16815260200190815260200160002060006101000a81548160ff0219169083151502179055505050506000600260006101000a81548160ff02191690831515021790555050565b60008060008084815260200190815260200160002090506000600342446040516020016110739291906121f9565b6040516020818303038152906040528051906020012060001c6110969190612254565b90506000811480156110f95750600073ffffffffffffffffffffffffffffffffffffffff168260040160009054906101000a900473ffffffffffffffffffffffffffffffffffffffff1673ffffffffffffffffffffffffffffffffffffffff1614155b1561112c578160040160009054906101000a900473ffffffffffffffffffffffffffffffffffffffff16925050506111ea565b60018114801561118d5750600073ffffffffffffffffffffffffffffffffffffffff168260030160009054906101000a900473ffffffffffffffffffffffffffffffffffffffff1673ffffffffffffffffffffffffffffffffffffffff1614155b156111c0578160030160009054906101000a900473ffffffffffffffffffffffffffffffffffffffff16925050506111ea565b8160020160009054906101000a900473ffffffffffffffffffffffffffffffffffffffff16925050505b919050565b6000806000858152602001908152602001600020905080600b0160008260020160009054906101000a900473ffffffffffffffffffffffffffffffffffffffff1673ffffffffffffffffffffffffffffffffffffffff1673ffffffffffffffffffffffffffffffffffffffff16815260200190815260200160002054821115611388578060030160009054906101000a900473ffffffffffffffffffffffffffffffffffffffff168160040160006101000a81548173ffffffffffffffffffffffffffffffffffffffff021916908373ffffffffffffffffffffffffffffffffffffffff1602179055508060020160009054906101000a900473ffffffffffffffffffffffffffffffffffffffff168160030160006101000a81548173ffffffffffffffffffffffffffffffffffffffff021916908373ffffffffffffffffffffffffffffffffffffffff160217905550828160020160006101000a81548173ffffffffffffffffffffffffffffffffffffffff021916908373ffffffffffffffffffffffffffffffffffffffff160217905550611557565b80600b0160008260030160009054906101000a900473ffffffffffffffffffffffffffffffffffffffff1673ffffffffffffffffffffffffffffffffffffffff1673ffffffffffffffffffffffffffffffffffffffff168152602001908152602001600020548211156114a4578060030160009054906101000a900473ffffffffffffffffffffffffffffffffffffffff168160040160006101000a81548173ffffffffffffffffffffffffffffffffffffffff021916908373ffffffffffffffffffffffffffffffffffffffff160217905550828160030160006101000a81548173ffffffffffffffffffffffffffffffffffffffff021916908373ffffffffffffffffffffffffffffffffffffffff160217905550611556565b80600b0160008260040160009054906101000a900473ffffffffffffffffffffffffffffffffffffffff1673ffffffffffffffffffffffffffffffffffffffff1673ffffffffffffffffffffffffffffffffffffffff1681526020019081526020016000205482111561155557828160040160006101000a81548173ffffffffffffffffffffffffffffffffffffffff021916908373ffffffffffffffffffffffffffffffffffffffff1602179055505b5b5b50505050565b6000806000858152602001908152602001600020905080600901839080600181540180825580915050600190039060005260206000200160009091909190916101000a81548173ffffffffffffffffffffffffffffffffffffffff021916908373ffffffffffffffffffffffffffffffffffffffff1602179055508181600b0160008573ffffffffffffffffffffffffffffffffffffffff1673ffffffffffffffffffffffffffffffffffffffff1681526020019081526020016000208190555050505050565b600080fd5b6000819050919050565b61163c81611629565b811461164757600080fd5b50565b60008135905061165981611633565b92915050565b60006020828403121561167557611674611624565b5b60006116838482850161164a565b91505092915050565b600073ffffffffffffffffffffffffffffffffffffffff82169050919050565b60006116b78261168c565b9050919050565b6116c7816116ac565b81146116d257600080fd5b50565b6000813590506116e4816116be565b92915050565b6000819050919050565b6116fd816116ea565b811461170857600080fd5b50565b60008135905061171a816116f4565b92915050565b60008060006060848603121561173957611738611624565b5b6000611747868287016116d5565b9350506020611758868287016116d5565b92505060406117698682870161170b565b9150509250925092565b61177c81611629565b82525050565b60006020820190506117976000830184611773565b92915050565b600080604083850312156117b4576117b3611624565b5b60006117c28582860161164a565b92505060206117d38582860161170b565b9150509250929050565b600080604083850312156117f4576117f3611624565b5b60006118028582860161164a565b9250506020611813858286016116d5565b9150509250929050565b611826816116ea565b82525050565b6000602082019050611841600083018461181d565b92915050565b611850816116ac565b82525050565b60006101208201905061186c600083018c611847565b611879602083018b611847565b611886604083018a611847565b6118936060830189611847565b6118a06080830188611847565b6118ad60a0830187611847565b6118ba60c083018661181d565b6118c760e083018561181d565b6118d5610100830184611773565b9a9950505050505050505050565b600082825260208201905092915050565b7f4f6e6c792074686520737761702063726561746f722063616e20706572666f7260008201527f6d207468697320616374696f6e00000000000000000000000000000000000000602082015250565b6000611950602d836118e3565b915061195b826118f4565b604082019050919050565b6000602082019050818103600083015261197f81611943565b9050919050565b7f4e6f2072652d656e7472616e6379000000000000000000000000000000000000600082015250565b60006119bc600e836118e3565b91506119c782611986565b602082019050919050565b600060208201905081810360008301526119eb816119af565b9050919050565b7f54686520737761702068617320616c7265616479206265656e2066696e616c6960008201527f7a65640000000000000000000000000000000000000000000000000000000000602082015250565b6000611a4e6023836118e3565b9150611a59826119f2565b604082019050919050565b60006020820190508181036000830152611a7d81611a41565b9050919050565b7f4e487b7100000000000000000000000000000000000000000000000000000000600052601160045260246000fd5b6000611abe826116ea565b9150611ac9836116ea565b9250828201905080821115611ae157611ae0611a84565b5b92915050565b7f546865207377617020686173206e6f7420657870697265642079657400000000600082015250565b6000611b1d601c836118e3565b9150611b2882611ae7565b602082019050919050565b60006020820190508181036000830152611b4c81611b10565b9050919050565b7f4e6f2062696464657220666f756e640000000000000000000000000000000000600082015250565b6000611b89600f836118e3565b9150611b9482611b53565b602082019050919050565b60006020820190508181036000830152611bb881611b7c565b9050919050565b6000606082019050611bd46000830186611847565b611be16020830185611847565b611bee604083018461181d565b949350505050565b60008115159050919050565b611c0b81611bf6565b8114611c1657600080fd5b50565b600081519050611c2881611c02565b92915050565b600060208284031215611c4457611c43611624565b5b6000611c5284828501611c19565b91505092915050565b7f5472616e73666572206661696c65640000000000000000000000000000000000600082015250565b6000611c91600f836118e3565b9150611c9c82611c5b565b602082019050919050565b60006020820190508181036000830152611cc081611c84565b9050919050565b7f496e70757420616e64206f757470757420746f6b656e732063616e6e6f74206260008201527f65207468652073616d6500000000000000000000000000000000000000000000602082015250565b6000611d23602a836118e3565b9150611d2e82611cc7565b604082019050919050565b60006020820190508181036000830152611d5281611d16565b9050919050565b7f496e70757420746f6b656e20616d6f756e74206d75737420626520677265617460008201527f6572207468616e20300000000000000000000000000000000000000000000000602082015250565b6000611db56029836118e3565b9150611dc082611d59565b604082019050919050565b60006020820190508181036000830152611de481611da8565b9050919050565b60008160601b9050919050565b6000611e0382611deb565b9050919050565b6000611e1582611df8565b9050919050565b611e2d611e28826116ac565b611e0a565b82525050565b6000819050919050565b611e4e611e49826116ea565b611e33565b82525050565b6000611e608288611e1c565b601482019150611e708287611e1c565b601482019150611e808286611e1c565b601482019150611e908285611e3d565b602082019150611ea08284611e3d565b6020820191508190509695505050505050565b7f42696420616d6f756e74206d7573742062652067726561746572207468616e2060008201527f3000000000000000000000000000000000000000000000000000000000000000602082015250565b6000611f0f6021836118e3565b9150611f1a82611eb3565b604082019050919050565b60006020820190508181036000830152611f3e81611f02565b9050919050565b7f45616368206269646465722063616e206f6e6c79206d616b65206f6e6520626960008201527f6400000000000000000000000000000000000000000000000000000000000000602082015250565b6000611fa16021836118e3565b9150611fac82611f45565b604082019050919050565b60006020820190508181036000830152611fd081611f94565b9050919050565b7f53776170204944206e6f7420666f756e64000000000000000000000000000000600082015250565b600061200d6011836118e3565b915061201882611fd7565b602082019050919050565b6000602082019050818103600083015261203c81612000565b9050919050565b7f546865207377617020686173206e6f74206265656e2066696e616c697a65642060008201527f6f72206578706972656420796574000000000000000000000000000000000000602082015250565b600061209f602e836118e3565b91506120aa82612043565b604082019050919050565b600060208201905081810360008301526120ce81612092565b9050919050565b7f4e6f2062696420666f756e6420666f722074686520676976656e20616464726560008201527f737320696e207468697320737761702e2043616e6e6f7420776974686472617760208201527f2e00000000000000000000000000000000000000000000000000000000000000604082015250565b60006121576041836118e3565b9150612162826120d5565b606082019050919050565b600060208201905081810360008301526121868161214a565b9050919050565b7f4269646465722068617320616c72656164792077697468647261776e00000000600082015250565b60006121c3601c836118e3565b91506121ce8261218d565b602082019050919050565b600060208201905081810360008301526121f2816121b6565b9050919050565b60006122058285611e3d565b6020820191506122158284611e3d565b6020820191508190509392505050565b7f4e487b7100000000000000000000000000000000000000000000000000000000600052601260045260246000fd5b600061225f826116ea565b915061226a836116ea565b92508261227a57612279612225565b5b82820690509291505056fea264697066735822122063e3c6b28e7a76e4f68de17169e4f22776269e61730f2aac0a123ede2008918064736f6c63430008180033",
    "linkReferences": {},
    "deployedLinkReferences": {}
}