{
  "_format": "hh-sol-artifact-1",
  "contractName": "Bittex",
  "sourceName": "contracts/bitrax.sol",
  "abi": [
    {
      "anonymous": false,
      "inputs": [
        {
          "indexed": false,
          "internalType": "bytes32",
          "name": "swapId",
          "type": "bytes32"
        }
      ],
      "name": "SwapCreated",
      "type": "event"
    },
    {
      "inputs": [
        {
          "internalType": "address",
          "name": "_inputToken",
          "type": "address"
        },
        {
          "internalType": "address",
          "name": "_outputToken",
          "type": "address"
        },
        {
          "internalType": "uint256",
          "name": "_inputTokenAmount",
          "type": "uint256"
        }
      ],
      "name": "createSwap",
      "outputs": [
        {
          "internalType": "bytes32",
          "name": "swapId",
          "type": "bytes32"
        }
      ],
      "stateMutability": "nonpayable",
      "type": "function"
    },
    {
      "inputs": [
        {
          "internalType": "bytes32",
          "name": "_swapId",
          "type": "bytes32"
        }
      ],
      "name": "finalizeSwap",
      "outputs": [],
      "stateMutability": "nonpayable",
      "type": "function"
    },
    {
      "inputs": [
        {
          "internalType": "bytes32",
          "name": "_swapId",
          "type": "bytes32"
        },
        {
          "internalType": "address",
          "name": "_bidder",
          "type": "address"
        }
      ],
      "name": "getBidInfo",
      "outputs": [
        {
          "internalType": "uint256",
          "name": "bidAmount",
          "type": "uint256"
        }
      ],
      "stateMutability": "view",
      "type": "function"
    },
    {
      "inputs": [
        {
          "internalType": "bytes32",
          "name": "_swapId",
          "type": "bytes32"
        },
        {
          "internalType": "uint256",
          "name": "_amount",
          "type": "uint256"
        }
      ],
      "name": "makeBid",
      "outputs": [],
      "stateMutability": "nonpayable",
      "type": "function"
    },
    {
      "inputs": [
        {
          "internalType": "bytes32",
          "name": "",
          "type": "bytes32"
        }
      ],
      "name": "swaps",
      "outputs": [
        {
          "internalType": "address",
          "name": "inputToken",
          "type": "address"
        },
        {
          "internalType": "address",
          "name": "outputToken",
          "type": "address"
        },
        {
          "internalType": "address",
          "name": "topBidder1",
          "type": "address"
        },
        {
          "internalType": "address",
          "name": "topBidder2",
          "type": "address"
        },
        {
          "internalType": "address",
          "name": "topBidder3",
          "type": "address"
        },
        {
          "internalType": "address",
          "name": "winner",
          "type": "address"
        },
        {
          "internalType": "uint256",
          "name": "inputTokenAmount",
          "type": "uint256"
        },
        {
          "internalType": "uint256",
          "name": "timestamp",
          "type": "uint256"
        },
        {
          "internalType": "bytes32",
          "name": "swapId",
          "type": "bytes32"
        }
      ],
      "stateMutability": "view",
      "type": "function"
    },
    {
      "inputs": [
        {
          "internalType": "bytes32",
          "name": "_swapId",
          "type": "bytes32"
        }
      ],
      "name": "withdrawBid",
      "outputs": [],
      "stateMutability": "nonpayable",
      "type": "function"
    }
  ],
  "bytecode": "0x608060405234801561001057600080fd5b506122f2806100206000396000f3fe608060405234801561001057600080fd5b50600436106100625760003560e01c806301f575b9146100675780636c80fd5b1461008357806392364d9c146100b3578063b5e8b98d146100cf578063eb84e7f2146100ff578063f7fd24c714610137575b600080fd5b610081600480360381019061007c9190611696565b610153565b005b61009d60048036038101906100989190611757565b610653565b6040516100aa91906117b9565b60405180910390f35b6100cd60048036038101906100c891906117d4565b61087f565b005b6100e960048036038101906100e49190611814565b610b66565b6040516100f69190611863565b60405180910390f35b61011960048036038101906101149190611696565b610bc3565b60405161012e9998979695949392919061188d565b60405180910390f35b610151600480360381019061014c9190611696565b610cd1565b005b806001600082815260200190815260200160002060009054906101000a900473ffffffffffffffffffffffffffffffffffffffff1673ffffffffffffffffffffffffffffffffffffffff163373ffffffffffffffffffffffffffffffffffffffff16146101f5576040517f08c379a00000000000000000000000000000000000000000000000000000000081526004016101ec9061199d565b60405180910390fd5b600260009054906101000a900460ff1615610245576040517f08c379a000000000000000000000000000000000000000000000000000000000815260040161023c90611a09565b60405180910390fd5b6001600260006101000a81548160ff02191690831515021790555060008060008481526020019081526020016000209050600073ffffffffffffffffffffffffffffffffffffffff168160050160009054906101000a900473ffffffffffffffffffffffffffffffffffffffff1673ffffffffffffffffffffffffffffffffffffffff1614610309576040517f08c379a000000000000000000000000000000000000000000000000000000000815260040161030090611a9b565b60405180910390fd5b61012c816007015461031b9190611aea565b421161035c576040517f08c379a000000000000000000000000000000000000000000000000000000000815260040161035390611b6a565b60405180910390fd5b60008160000160009054906101000a900473ffffffffffffffffffffffffffffffffffffffff16905060008260010160009054906101000a900473ffffffffffffffffffffffffffffffffffffffff16905060006103b98661107c565b9050600073ffffffffffffffffffffffffffffffffffffffff168173ffffffffffffffffffffffffffffffffffffffff160361042a576040517f08c379a000000000000000000000000000000000000000000000000000000000815260040161042190611bd6565b60405180910390fd5b8273ffffffffffffffffffffffffffffffffffffffff166323b872dd338387600601546040518463ffffffff1660e01b815260040161046b93929190611bf6565b6020604051808303816000875af115801561048a573d6000803e3d6000fd5b505050506040513d601f19601f820116820180604052508101906104ae9190611c65565b6104ed576040517f08c379a00000000000000000000000000000000000000000000000000000000081526004016104e490611cde565b60405180910390fd5b8173ffffffffffffffffffffffffffffffffffffffff166323b872dd303387600b0160008673ffffffffffffffffffffffffffffffffffffffff1673ffffffffffffffffffffffffffffffffffffffff168152602001908152602001600020546040518463ffffffff1660e01b815260040161056b93929190611bf6565b6020604051808303816000875af115801561058a573d6000803e3d6000fd5b505050506040513d601f19601f820116820180604052508101906105ae9190611c65565b6105ed576040517f08c379a00000000000000000000000000000000000000000000000000000000081526004016105e490611cde565b60405180910390fd5b808460050160006101000a81548173ffffffffffffffffffffffffffffffffffffffff021916908373ffffffffffffffffffffffffffffffffffffffff160217905550505050506000600260006101000a81548160ff0219169083151502179055505050565b60008273ffffffffffffffffffffffffffffffffffffffff168473ffffffffffffffffffffffffffffffffffffffff16036106c3576040517f08c379a00000000000000000000000000000000000000000000000000000000081526004016106ba90611d70565b60405180910390fd5b60008211610706576040517f08c379a00000000000000000000000000000000000000000000000000000000081526004016106fd90611e02565b60405180910390fd5b338484844260405160200161071f959493929190611e8b565b60405160208183030381529060405280519060200120905060008060008381526020019081526020016000209050818160080181905550848160000160006101000a81548173ffffffffffffffffffffffffffffffffffffffff021916908373ffffffffffffffffffffffffffffffffffffffff160217905550838160010160006101000a81548173ffffffffffffffffffffffffffffffffffffffff021916908373ffffffffffffffffffffffffffffffffffffffff160217905550828160060181905550428160070181905550336001600084815260200190815260200160002060006101000a81548173ffffffffffffffffffffffffffffffffffffffff021916908373ffffffffffffffffffffffffffffffffffffffff1602179055507fa8a875d6996c44a0222280b69cc9466664306fba02da8f1104b730d8fef520428260405161086f91906117b9565b60405180910390a1509392505050565b600260009054906101000a900460ff16156108cf576040517f08c379a00000000000000000000000000000000000000000000000000000000081526004016108c690611a09565b60405180910390fd5b6001600260006101000a81548160ff0219169083151502179055506000811161092d576040517f08c379a000000000000000000000000000000000000000000000000000000000815260040161092490611f5c565b60405180910390fd5b60008060008481526020019081526020016000209050600081600b0160003373ffffffffffffffffffffffffffffffffffffffff1673ffffffffffffffffffffffffffffffffffffffff16815260200190815260200160002054146109c7576040517f08c379a00000000000000000000000000000000000000000000000000000000081526004016109be90611fee565b60405180910390fd5b600080600085815260200190815260200160002060010160009054906101000a900473ffffffffffffffffffffffffffffffffffffffff169050600073ffffffffffffffffffffffffffffffffffffffff168173ffffffffffffffffffffffffffffffffffffffff1603610a70576040517f08c379a0000000000000000000000000000000000000000000000000000000008152600401610a679061205a565b60405180910390fd5b8073ffffffffffffffffffffffffffffffffffffffff166323b872dd3330866040518463ffffffff1660e01b8152600401610aad93929190611bf6565b6020604051808303816000875af1158015610acc573d6000803e3d6000fd5b505050506040513d601f19601f82011682018060405250810190610af09190611c65565b610b2f576040517f08c379a0000000000000000000000000000000000000000000000000000000008152600401610b2690611cde565b60405180910390fd5b610b3a843385611226565b610b45843385611594565b50506000600260006101000a81548160ff0219169083151502179055505050565b6000806000848152602001908152602001600020600b0160008373ffffffffffffffffffffffffffffffffffffffff1673ffffffffffffffffffffffffffffffffffffffff16815260200190815260200160002054905092915050565b60006020528060005260406000206000915090508060000160009054906101000a900473ffffffffffffffffffffffffffffffffffffffff16908060010160009054906101000a900473ffffffffffffffffffffffffffffffffffffffff16908060020160009054906101000a900473ffffffffffffffffffffffffffffffffffffffff16908060030160009054906101000a900473ffffffffffffffffffffffffffffffffffffffff16908060040160009054906101000a900473ffffffffffffffffffffffffffffffffffffffff16908060050160009054906101000a900473ffffffffffffffffffffffffffffffffffffffff16908060060154908060070154908060080154905089565b600260009054906101000a900460ff1615610d21576040517f08c379a0000000000000000000000000000000000000000000000000000000008152600401610d1890611a09565b60405180910390fd5b6001600260006101000a81548160ff02191690831515021790555060008060008381526020019081526020016000209050600073ffffffffffffffffffffffffffffffffffffffff168160050160009054906101000a900473ffffffffffffffffffffffffffffffffffffffff1673ffffffffffffffffffffffffffffffffffffffff16141580610dc2575061012c8160070154610dbf9190611aea565b42115b610e01576040517f08c379a0000000000000000000000000000000000000000000000000000000008152600401610df8906120ec565b60405180910390fd5b600081600b0160003373ffffffffffffffffffffffffffffffffffffffff1673ffffffffffffffffffffffffffffffffffffffff16815260200190815260200160002054905060008111610e8a576040517f08c379a0000000000000000000000000000000000000000000000000000000008152600401610e81906121a4565b60405180910390fd5b81600a0160003373ffffffffffffffffffffffffffffffffffffffff1673ffffffffffffffffffffffffffffffffffffffff16815260200190815260200160002060009054906101000a900460ff1615610f19576040517f08c379a0000000000000000000000000000000000000000000000000000000008152600401610f1090612210565b60405180910390fd5b60008260010160009054906101000a900473ffffffffffffffffffffffffffffffffffffffff1690508073ffffffffffffffffffffffffffffffffffffffff166323b872dd3033856040518463ffffffff1660e01b8152600401610f7f93929190611bf6565b6020604051808303816000875af1158015610f9e573d6000803e3d6000fd5b505050506040513d601f19601f82011682018060405250810190610fc29190611c65565b611001576040517f08c379a0000000000000000000000000000000000000000000000000000000008152600401610ff890611cde565b60405180910390fd5b600183600a0160003373ffffffffffffffffffffffffffffffffffffffff1673ffffffffffffffffffffffffffffffffffffffff16815260200190815260200160002060006101000a81548160ff0219169083151502179055505050506000600260006101000a81548160ff02191690831515021790555050565b60008060008084815260200190815260200160002090506000600342446040516020016110aa929190612230565b6040516020818303038152906040528051906020012060001c6110cd919061228b565b90506000811480156111305750600073ffffffffffffffffffffffffffffffffffffffff168260040160009054906101000a900473ffffffffffffffffffffffffffffffffffffffff1673ffffffffffffffffffffffffffffffffffffffff1614155b15611163578160040160009054906101000a900473ffffffffffffffffffffffffffffffffffffffff1692505050611221565b6001811480156111c45750600073ffffffffffffffffffffffffffffffffffffffff168260030160009054906101000a900473ffffffffffffffffffffffffffffffffffffffff1673ffffffffffffffffffffffffffffffffffffffff1614155b156111f7578160030160009054906101000a900473ffffffffffffffffffffffffffffffffffffffff1692505050611221565b8160020160009054906101000a900473ffffffffffffffffffffffffffffffffffffffff16925050505b919050565b6000806000858152602001908152602001600020905080600b0160008260020160009054906101000a900473ffffffffffffffffffffffffffffffffffffffff1673ffffffffffffffffffffffffffffffffffffffff1673ffffffffffffffffffffffffffffffffffffffff168152602001908152602001600020548211156113bf578060030160009054906101000a900473ffffffffffffffffffffffffffffffffffffffff168160040160006101000a81548173ffffffffffffffffffffffffffffffffffffffff021916908373ffffffffffffffffffffffffffffffffffffffff1602179055508060020160009054906101000a900473ffffffffffffffffffffffffffffffffffffffff168160030160006101000a81548173ffffffffffffffffffffffffffffffffffffffff021916908373ffffffffffffffffffffffffffffffffffffffff160217905550828160020160006101000a81548173ffffffffffffffffffffffffffffffffffffffff021916908373ffffffffffffffffffffffffffffffffffffffff16021790555061158e565b80600b0160008260030160009054906101000a900473ffffffffffffffffffffffffffffffffffffffff1673ffffffffffffffffffffffffffffffffffffffff1673ffffffffffffffffffffffffffffffffffffffff168152602001908152602001600020548211156114db578060030160009054906101000a900473ffffffffffffffffffffffffffffffffffffffff168160040160006101000a81548173ffffffffffffffffffffffffffffffffffffffff021916908373ffffffffffffffffffffffffffffffffffffffff160217905550828160030160006101000a81548173ffffffffffffffffffffffffffffffffffffffff021916908373ffffffffffffffffffffffffffffffffffffffff16021790555061158d565b80600b0160008260040160009054906101000a900473ffffffffffffffffffffffffffffffffffffffff1673ffffffffffffffffffffffffffffffffffffffff1673ffffffffffffffffffffffffffffffffffffffff1681526020019081526020016000205482111561158c57828160040160006101000a81548173ffffffffffffffffffffffffffffffffffffffff021916908373ffffffffffffffffffffffffffffffffffffffff1602179055505b5b5b50505050565b6000806000858152602001908152602001600020905080600901839080600181540180825580915050600190039060005260206000200160009091909190916101000a81548173ffffffffffffffffffffffffffffffffffffffff021916908373ffffffffffffffffffffffffffffffffffffffff1602179055508181600b0160008573ffffffffffffffffffffffffffffffffffffffff1673ffffffffffffffffffffffffffffffffffffffff1681526020019081526020016000208190555050505050565b600080fd5b6000819050919050565b61167381611660565b811461167e57600080fd5b50565b6000813590506116908161166a565b92915050565b6000602082840312156116ac576116ab61165b565b5b60006116ba84828501611681565b91505092915050565b600073ffffffffffffffffffffffffffffffffffffffff82169050919050565b60006116ee826116c3565b9050919050565b6116fe816116e3565b811461170957600080fd5b50565b60008135905061171b816116f5565b92915050565b6000819050919050565b61173481611721565b811461173f57600080fd5b50565b6000813590506117518161172b565b92915050565b6000806000606084860312156117705761176f61165b565b5b600061177e8682870161170c565b935050602061178f8682870161170c565b92505060406117a086828701611742565b9150509250925092565b6117b381611660565b82525050565b60006020820190506117ce60008301846117aa565b92915050565b600080604083850312156117eb576117ea61165b565b5b60006117f985828601611681565b925050602061180a85828601611742565b9150509250929050565b6000806040838503121561182b5761182a61165b565b5b600061183985828601611681565b925050602061184a8582860161170c565b9150509250929050565b61185d81611721565b82525050565b60006020820190506118786000830184611854565b92915050565b611887816116e3565b82525050565b6000610120820190506118a3600083018c61187e565b6118b0602083018b61187e565b6118bd604083018a61187e565b6118ca606083018961187e565b6118d7608083018861187e565b6118e460a083018761187e565b6118f160c0830186611854565b6118fe60e0830185611854565b61190c6101008301846117aa565b9a9950505050505050505050565b600082825260208201905092915050565b7f4f6e6c792074686520737761702063726561746f722063616e20706572666f7260008201527f6d207468697320616374696f6e00000000000000000000000000000000000000602082015250565b6000611987602d8361191a565b91506119928261192b565b604082019050919050565b600060208201905081810360008301526119b68161197a565b9050919050565b7f4e6f2072652d656e7472616e6379000000000000000000000000000000000000600082015250565b60006119f3600e8361191a565b91506119fe826119bd565b602082019050919050565b60006020820190508181036000830152611a22816119e6565b9050919050565b7f54686520737761702068617320616c7265616479206265656e2066696e616c6960008201527f7a65640000000000000000000000000000000000000000000000000000000000602082015250565b6000611a8560238361191a565b9150611a9082611a29565b604082019050919050565b60006020820190508181036000830152611ab481611a78565b9050919050565b7f4e487b7100000000000000000000000000000000000000000000000000000000600052601160045260246000fd5b6000611af582611721565b9150611b0083611721565b9250828201905080821115611b1857611b17611abb565b5b92915050565b7f546865207377617020686173206e6f7420657870697265642079657400000000600082015250565b6000611b54601c8361191a565b9150611b5f82611b1e565b602082019050919050565b60006020820190508181036000830152611b8381611b47565b9050919050565b7f4e6f2062696464657220666f756e640000000000000000000000000000000000600082015250565b6000611bc0600f8361191a565b9150611bcb82611b8a565b602082019050919050565b60006020820190508181036000830152611bef81611bb3565b9050919050565b6000606082019050611c0b600083018661187e565b611c18602083018561187e565b611c256040830184611854565b949350505050565b60008115159050919050565b611c4281611c2d565b8114611c4d57600080fd5b50565b600081519050611c5f81611c39565b92915050565b600060208284031215611c7b57611c7a61165b565b5b6000611c8984828501611c50565b91505092915050565b7f5472616e73666572206661696c65640000000000000000000000000000000000600082015250565b6000611cc8600f8361191a565b9150611cd382611c92565b602082019050919050565b60006020820190508181036000830152611cf781611cbb565b9050919050565b7f496e70757420616e64206f757470757420746f6b656e732063616e6e6f74206260008201527f65207468652073616d6500000000000000000000000000000000000000000000602082015250565b6000611d5a602a8361191a565b9150611d6582611cfe565b604082019050919050565b60006020820190508181036000830152611d8981611d4d565b9050919050565b7f496e70757420746f6b656e20616d6f756e74206d75737420626520677265617460008201527f6572207468616e20300000000000000000000000000000000000000000000000602082015250565b6000611dec60298361191a565b9150611df782611d90565b604082019050919050565b60006020820190508181036000830152611e1b81611ddf565b9050919050565b60008160601b9050919050565b6000611e3a82611e22565b9050919050565b6000611e4c82611e2f565b9050919050565b611e64611e5f826116e3565b611e41565b82525050565b6000819050919050565b611e85611e8082611721565b611e6a565b82525050565b6000611e978288611e53565b601482019150611ea78287611e53565b601482019150611eb78286611e53565b601482019150611ec78285611e74565b602082019150611ed78284611e74565b6020820191508190509695505050505050565b7f42696420616d6f756e74206d7573742062652067726561746572207468616e2060008201527f3000000000000000000000000000000000000000000000000000000000000000602082015250565b6000611f4660218361191a565b9150611f5182611eea565b604082019050919050565b60006020820190508181036000830152611f7581611f39565b9050919050565b7f45616368206269646465722063616e206f6e6c79206d616b65206f6e6520626960008201527f6400000000000000000000000000000000000000000000000000000000000000602082015250565b6000611fd860218361191a565b9150611fe382611f7c565b604082019050919050565b6000602082019050818103600083015261200781611fcb565b9050919050565b7f53776170204944206e6f7420666f756e64000000000000000000000000000000600082015250565b600061204460118361191a565b915061204f8261200e565b602082019050919050565b6000602082019050818103600083015261207381612037565b9050919050565b7f546865207377617020686173206e6f74206265656e2066696e616c697a65642060008201527f6f72206578706972656420796574000000000000000000000000000000000000602082015250565b60006120d6602e8361191a565b91506120e18261207a565b604082019050919050565b60006020820190508181036000830152612105816120c9565b9050919050565b7f4e6f2062696420666f756e6420666f722074686520676976656e20616464726560008201527f737320696e207468697320737761702e2043616e6e6f7420776974686472617760208201527f2e00000000000000000000000000000000000000000000000000000000000000604082015250565b600061218e60418361191a565b91506121998261210c565b606082019050919050565b600060208201905081810360008301526121bd81612181565b9050919050565b7f4269646465722068617320616c72656164792077697468647261776e00000000600082015250565b60006121fa601c8361191a565b9150612205826121c4565b602082019050919050565b60006020820190508181036000830152612229816121ed565b9050919050565b600061223c8285611e74565b60208201915061224c8284611e74565b6020820191508190509392505050565b7f4e487b7100000000000000000000000000000000000000000000000000000000600052601260045260246000fd5b600061229682611721565b91506122a183611721565b9250826122b1576122b061225c565b5b82820690509291505056fea26469706673582212200be994de26dc4742e9aa68351d8b9beaace37b4a624b4ea54dd8c74c9d25e97064736f6c63430008180033",
  "linkReferences": {},
  "deployedLinkReferences": {}
}